:020000040000FA
:060000000A128A11FC2F18
:100F5200831603138601FF30880083120313860170
:100F620008000A128A11A9270A128A110A128A1182
:100F7200CD270A128A110230F2004530F100A93061
:100F8200F000F00BC22FF10BC22FF20BC22FC92FB0
:100F9200B72F0A128A110028831203130818D22FBE
:100FA200D32FDA2F0819D62FD72FDA2F0610861053
:100FB200FB2F0819DD2FDE2FE52F081CE12FE22F72
:100FC200E52F06148610FB2F081DE82FE92FF02FBE
:100FD2000818EC2FED2FF02F06108614FB2F081D9A
:100FE200F32FF42FFB2F081CF72FF82FFB2F0614DB
:0E0FF2008614FB2F080083010A128A11B22F09
:02400E007A3FF7
:00000001FF
